{
  "_format": "hh-sol-artifact-1",
  "contractName": "TapGame",
  "sourceName": "contracts/Tap.sol",
  "abi": [
    {
      "inputs": [
        {
          "internalType": "address",
          "name": "trustedForwarder",
          "type": "address"
        }
      ],
      "stateMutability": "nonpayable",
      "type": "constructor"
    },
    {
      "anonymous": false,
      "inputs": [
        {
          "indexed": true,
          "internalType": "address",
          "name": "user",
          "type": "address"
        },
        {
          "indexed": false,
          "internalType": "uint256",
          "name": "newScore",
          "type": "uint256"
        }
      ],
      "name": "Tapped",
      "type": "event"
    },
    {
      "inputs": [
        {
          "internalType": "address",
          "name": "user",
          "type": "address"
        }
      ],
      "name": "getScore",
      "outputs": [
        {
          "internalType": "uint256",
          "name": "",
          "type": "uint256"
        }
      ],
      "stateMutability": "view",
      "type": "function"
    },
    {
      "inputs": [
        {
          "internalType": "address",
          "name": "forwarder",
          "type": "address"
        }
      ],
      "name": "isTrustedForwarder",
      "outputs": [
        {
          "internalType": "bool",
          "name": "",
          "type": "bool"
        }
      ],
      "stateMutability": "view",
      "type": "function"
    },
    {
      "inputs": [
        {
          "internalType": "address",
          "name": "",
          "type": "address"
        }
      ],
      "name": "scores",
      "outputs": [
        {
          "internalType": "uint256",
          "name": "",
          "type": "uint256"
        }
      ],
      "stateMutability": "view",
      "type": "function"
    },
    {
      "inputs": [],
      "name": "tap",
      "outputs": [],
      "stateMutability": "nonpayable",
      "type": "function"
    },
    {
      "inputs": [],
      "name": "trustedForwarder",
      "outputs": [
        {
          "internalType": "address",
          "name": "",
          "type": "address"
        }
      ],
      "stateMutability": "view",
      "type": "function"
    }
  ],
  "bytecode": "0x60a060405234801561001057600080fd5b50604051610744380380610744833981810160405281019061003291906100d1565b808073ffffffffffffffffffffffffffffffffffffffff1660808173ffffffffffffffffffffffffffffffffffffffff168152505050506100fe565b600080fd5b600073ffffffffffffffffffffffffffffffffffffffff82169050919050565b600061009e82610073565b9050919050565b6100ae81610093565b81146100b957600080fd5b50565b6000815190506100cb816100a5565b92915050565b6000602082840312156100e7576100e661006e565b5b60006100f5848285016100bc565b91505092915050565b60805161062b610119600039600061016f015261062b6000f3fe608060405234801561001057600080fd5b50600436106100575760003560e01c8063572b6c051461005c57806376dd110f1461008c5780637da0a877146100bc578063d47875d0146100da578063fd2210311461010a575b600080fd5b610076600480360381019061007191906103b5565b610114565b60405161008391906103fd565b60405180910390f35b6100a660048036038101906100a191906103b5565b610153565b6040516100b39190610431565b60405180910390f35b6100c461016b565b6040516100d1919061045b565b60405180910390f35b6100f460048036038101906100ef91906103b5565b610193565b6040516101019190610431565b60405180910390f35b6101126101db565b005b600061011e61016b565b73ffffffffffffffffffffffffffffffffffffffff168273ffffffffffffffffffffffffffffffffffffffff16149050919050565b60006020528060005260406000206000915090505481565b60007f0000000000000000000000000000000000000000000000000000000000000000905090565b60008060008373ffffffffffffffffffffffffffffffffffffffff1673ffffffffffffffffffffffffffffffffffffffff168152602001908152602001600020549050919050565b60006101e56102cc565b905060016000808373ffffffffffffffffffffffffffffffffffffffff1673ffffffffffffffffffffffffffffffffffffffff168152602001908152602001600020600082825461023691906104a5565b925050819055508073ffffffffffffffffffffffffffffffffffffffff167fdc127be18d76e446e5fc020307f45258733b6de74a0e446901771cbc729c19246000808473ffffffffffffffffffffffffffffffffffffffff1673ffffffffffffffffffffffffffffffffffffffff168152602001908152602001600020546040516102c19190610431565b60405180910390a250565b6000806000369050905060006102e0610341565b90506102eb33610114565b80156102f75750808210155b1561033157600036828461030b91906104d9565b90809261031a93929190610517565b906103259190610596565b60601c9250505061033e565b61033961034a565b925050505b90565b60006014905090565b600033905090565b600080fd5b600073ffffffffffffffffffffffffffffffffffffffff82169050919050565b600061038282610357565b9050919050565b61039281610377565b811461039d57600080fd5b50565b6000813590506103af81610389565b92915050565b6000602082840312156103cb576103ca610352565b5b60006103d9848285016103a0565b91505092915050565b60008115159050919050565b6103f7816103e2565b82525050565b600060208201905061041260008301846103ee565b92915050565b6000819050919050565b61042b81610418565b82525050565b60006020820190506104466000830184610422565b92915050565b61045581610377565b82525050565b6000602082019050610470600083018461044c565b92915050565b7f4e487b7100000000000000000000000000000000000000000000000000000000600052601160045260246000fd5b60006104b082610418565b91506104bb83610418565b92508282019050808211156104d3576104d2610476565b5b92915050565b60006104e482610418565b91506104ef83610418565b925082820390508181111561050757610506610476565b5b92915050565b600080fd5b600080fd5b6000808585111561052b5761052a61050d565b5b8386111561053c5761053b610512565b5b6001850283019150848603905094509492505050565b600082905092915050565b60007fffffffffffffffffffffffffffffffffffffffff00000000000000000000000082169050919050565b600082821b905092915050565b60006105a28383610552565b826105ad813561055d565b925060148210156105ed576105e87fffffffffffffffffffffffffffffffffffffffff00000000000000000000000083601403600802610589565b831692505b50509291505056fea2646970667358221220e21f0024bd48449847e3bd7b43e0ebd9a2b9c38ed654b226860ae75a9368fd8d64736f6c634300081b0033",
  "linkReferences": {},
  "deployedLinkReferences": {}
}